{
  "contractName": "Marketplace",
  "abi": [
    {
      "inputs": [],
      "payable": false,
      "stateMutability": "nonpayable",
      "type": "constructor"
    },
    {
      "anonymous": false,
      "inputs": [
        {
          "indexed": false,
          "internalType": "bytes32",
          "name": "id",
          "type": "bytes32"
        },
        {
          "indexed": true,
          "internalType": "uint256",
          "name": "assetId",
          "type": "uint256"
        },
        {
          "indexed": true,
          "internalType": "address",
          "name": "seller",
          "type": "address"
        },
        {
          "indexed": false,
          "internalType": "address",
          "name": "nftAddress",
          "type": "address"
        }
      ],
      "name": "OrderCancelled",
      "type": "event"
    },
    {
      "anonymous": false,
      "inputs": [
        {
          "indexed": false,
          "internalType": "bytes32",
          "name": "id",
          "type": "bytes32"
        },
        {
          "indexed": true,
          "internalType": "uint256",
          "name": "assetId",
          "type": "uint256"
        },
        {
          "indexed": true,
          "internalType": "address",
          "name": "seller",
          "type": "address"
        },
        {
          "indexed": false,
          "internalType": "address",
          "name": "nftAddress",
          "type": "address"
        },
        {
          "indexed": false,
          "internalType": "uint256",
          "name": "priceInWei",
          "type": "uint256"
        }
      ],
      "name": "OrderCreated",
      "type": "event"
    },
    {
      "anonymous": false,
      "inputs": [
        {
          "indexed": false,
          "internalType": "bytes32",
          "name": "id",
          "type": "bytes32"
        },
        {
          "indexed": true,
          "internalType": "uint256",
          "name": "assetId",
          "type": "uint256"
        },
        {
          "indexed": true,
          "internalType": "address",
          "name": "seller",
          "type": "address"
        },
        {
          "indexed": false,
          "internalType": "address",
          "name": "nftAddress",
          "type": "address"
        },
        {
          "indexed": false,
          "internalType": "uint256",
          "name": "totalPrice",
          "type": "uint256"
        },
        {
          "indexed": true,
          "internalType": "address",
          "name": "buyer",
          "type": "address"
        }
      ],
      "name": "OrderSuccessful",
      "type": "event"
    },
    {
      "constant": true,
      "inputs": [
        {
          "internalType": "uint256",
          "name": "",
          "type": "uint256"
        },
        {
          "internalType": "uint256",
          "name": "",
          "type": "uint256"
        }
      ],
      "name": "approvalList",
      "outputs": [
        {
          "internalType": "address",
          "name": "",
          "type": "address"
        }
      ],
      "payable": false,
      "stateMutability": "view",
      "type": "function"
    },
    {
      "constant": true,
      "inputs": [],
      "name": "nftCounter",
      "outputs": [
        {
          "internalType": "uint256",
          "name": "",
          "type": "uint256"
        }
      ],
      "payable": false,
      "stateMutability": "view",
      "type": "function"
    },
    {
      "constant": true,
      "inputs": [
        {
          "internalType": "address",
          "name": "",
          "type": "address"
        },
        {
          "internalType": "uint256",
          "name": "",
          "type": "uint256"
        }
      ],
      "name": "orderByAssetId",
      "outputs": [
        {
          "internalType": "bytes32",
          "name": "id",
          "type": "bytes32"
        },
        {
          "internalType": "address payable",
          "name": "seller",
          "type": "address"
        },
        {
          "internalType": "address",
          "name": "nftAddress",
          "type": "address"
        },
        {
          "internalType": "uint256",
          "name": "price",
          "type": "uint256"
        }
      ],
      "payable": false,
      "stateMutability": "view",
      "type": "function"
    },
    {
      "constant": true,
      "inputs": [
        {
          "internalType": "uint256",
          "name": "",
          "type": "uint256"
        }
      ],
      "name": "premiumNFT",
      "outputs": [
        {
          "internalType": "uint256",
          "name": "",
          "type": "uint256"
        }
      ],
      "payable": false,
      "stateMutability": "view",
      "type": "function"
    },
    {
      "constant": false,
      "inputs": [
        {
          "internalType": "address",
          "name": "nftAddress",
          "type": "address"
        },
        {
          "internalType": "uint256",
          "name": "assetId",
          "type": "uint256"
        },
        {
          "internalType": "uint256",
          "name": "priceInWei",
          "type": "uint256"
        }
      ],
      "name": "convertToPremium",
      "outputs": [],
      "payable": true,
      "stateMutability": "payable",
      "type": "function"
    },
    {
      "constant": false,
      "inputs": [
        {
          "internalType": "address",
          "name": "nftAddress",
          "type": "address"
        },
        {
          "internalType": "uint256",
          "name": "assetId",
          "type": "uint256"
        }
      ],
      "name": "addPremiumNFT",
      "outputs": [],
      "payable": true,
      "stateMutability": "payable",
      "type": "function"
    }
  ],
  "bytecode": "0x608060405234801561001057600080fd5b5033600460006101000a81548173ffffffffffffffffffffffffffffffffffffffff021916908373ffffffffffffffffffffffffffffffffffffffff160217905550610f82806100616000396000f3fe6080604052600436106100555760003560e01c806319a421431461005a57806330d9e574146100a9578063ae7aa4481461012e578063dcf8088f1461017c578063e574609e146101d4578063e61f3851146101ff575b600080fd5b34801561006657600080fd5b506100936004803603602081101561007d57600080fd5b81019080803590602001909291905050506102db565b6040518082815260200191505060405180910390f35b3480156100b557600080fd5b506100ec600480360360408110156100cc57600080fd5b8101908080359060200190929190803590602001909291905050506102f3565b604051808273ffffffffffffffffffffffffffffffffffffffff1673ffffffffffffffffffffffffffffffffffffffff16815260200191505060405180910390f35b61017a6004803603604081101561014457600080fd5b81019080803573ffffffffffffffffffffffffffffffffffffffff1690602001909291908035906020019092919050505061033e565b005b6101d26004803603606081101561019257600080fd5b81019080803573ffffffffffffffffffffffffffffffffffffffff169060200190929190803590602001909291908035906020019092919050505061092c565b005b3480156101e057600080fd5b506101e9610dff565b6040518082815260200191505060405180910390f35b34801561020b57600080fd5b506102586004803603604081101561022257600080fd5b81019080803573ffffffffffffffffffffffffffffffffffffffff16906020019092919080359060200190929190505050610e05565b604051808581526020018473ffffffffffffffffffffffffffffffffffffffff1673ffffffffffffffffffffffffffffffffffffffff1681526020018373ffffffffffffffffffffffffffffffffffffffff1673ffffffffffffffffffffffffffffffffffffffff16815260200182815260200194505050505060405180910390f35b60026020528060005260406000206000915090505481565b6003602052816000526040600020818154811061030c57fe5b906000526020600020016000915091509054906101000a900473ffffffffffffffffffffffffffffffffffffffff1681565b600033905061034b610eb1565b600160008573ffffffffffffffffffffffffffffffffffffffff1673ffffffffffffffffffffffffffffffffffffffff1681526020019081526020016000206000848152602001908152602001600020604051806080016040529081600082015481526020016001820160009054906101000a900473ffffffffffffffffffffffffffffffffffffffff1673ffffffffffffffffffffffffffffffffffffffff1673ffffffffffffffffffffffffffffffffffffffff1681526020016002820160009054906101000a900473ffffffffffffffffffffffffffffffffffffffff1673ffffffffffffffffffffffffffffffffffffffff1673ffffffffffffffffffffffffffffffffffffffff16815260200160038201548152505090506000801b816000015114156104e5576040517f08c379a00000000000000000000000000000000000000000000000000000000081526004018080602001828103825260138152602001807f4173736574206e6f74207075626c69736865640000000000000000000000000081525060200191505060405180910390fd5b600081602001519050600073ffffffffffffffffffffffffffffffffffffffff168173ffffffffffffffffffffffffffffffffffffffff161415610591576040517f08c379a000000000000000000000000000000000000000000000000000000000815260040180806020018281038252600f8152602001807f496e76616c69642061646472657373000000000000000000000000000000000081525060200191505060405180910390fd5b8273ffffffffffffffffffffffffffffffffffffffff168173ffffffffffffffffffffffffffffffffffffffff161415610633576040517f08c379a00000000000000000000000000000000000000000000000000000000081526004018080602001828103825260118152602001807f556e617574686f72697a6564207573657200000000000000000000000000000081525060200191505060405180910390fd5b348260600151146106ac576040517f08c379a00000000000000000000000000000000000000000000000000000000081526004018080602001828103825260188152602001807f546865207072696365206973206e6f7420636f7272656374000000000000000081525060200191505060405180910390fd5b8473ffffffffffffffffffffffffffffffffffffffff16636352211e856040518263ffffffff1660e01b81526004018082815260200191505060206040518083038186803b1580156106fd57600080fd5b505afa158015610711573d6000803e3d6000fd5b505050506040513d602081101561072757600080fd5b810190808051906020019092919050505073ffffffffffffffffffffffffffffffffffffffff168173ffffffffffffffffffffffffffffffffffffffff16146107bb576040517f08c379a0000000000000000000000000000000000000000000000000000000008152600401808060200182810382526021815260200180610f2d6021913960400191505060405180910390fd5b6000826000015190508173ffffffffffffffffffffffffffffffffffffffff166108fc349081150290604051600060405180830381858888f1935050505015801561080a573d6000803e3d6000fd5b50600360008681526020019081526020016000203390806001815401808255809150509060018203906000526020600020016000909192909190916101000a81548173ffffffffffffffffffffffffffffffffffffffff021916908373ffffffffffffffffffffffffffffffffffffffff160217905550508373ffffffffffffffffffffffffffffffffffffffff168273ffffffffffffffffffffffffffffffffffffffff16867f695ec315e8a642a74d450a4505eeea53df699b47a7378c7d752e97d5b16eb9bb848a34604051808481526020018373ffffffffffffffffffffffffffffffffffffffff1673ffffffffffffffffffffffffffffffffffffffff168152602001828152602001935050505060405180910390a4505050505050565b61094b8373ffffffffffffffffffffffffffffffffffffffff16610e82565b6109a0576040517f08c379a0000000000000000000000000000000000000000000000000000000008152600401808060200182810382526024815260200180610f096024913960400191505060405180910390fd5b600033905060008473ffffffffffffffffffffffffffffffffffffffff16636352211e856040518263ffffffff1660e01b81526004018082815260200191505060206040518083038186803b1580156109f857600080fd5b505afa158015610a0c573d6000803e3d6000fd5b505050506040513d6020811015610a2257600080fd5b810190808051906020019092919050505090508073ffffffffffffffffffffffffffffffffffffffff168273ffffffffffffffffffffffffffffffffffffffff1614610ad6576040517f08c379a00000000000000000000000000000000000000000000000000000000081526004018080602001828103825260208152602001807f4f6e6c7920746865206f776e65722063616e20637265617465206f726465727381525060200191505060405180910390fd5b60008311610b4c576040517f08c379a000000000000000000000000000000000000000000000000000000000815260040180806020018281038252601d8152602001807f50726963652073686f756c6420626520626967676572207468616e203000000081525060200191505060405180910390fd5b610b626001600054610e9590919063ffffffff16565b6000819055508360026000805481526020019081526020016000208190555060004282868887604051602001808681526020018573ffffffffffffffffffffffffffffffffffffffff1673ffffffffffffffffffffffffffffffffffffffff1660601b81526014018481526020018373ffffffffffffffffffffffffffffffffffffffff1673ffffffffffffffffffffffffffffffffffffffff1660601b81526014018281526020019550505050505060405160208183030381529060405280519060200120905060405180608001604052808281526020018373ffffffffffffffffffffffffffffffffffffffff1681526020018773ffffffffffffffffffffffffffffffffffffffff16815260200185815250600160008873ffffffffffffffffffffffffffffffffffffffff1673ffffffffffffffffffffffffffffffffffffffff16815260200190815260200160002060008781526020019081526020016000206000820151816000015560208201518160010160006101000a81548173ffffffffffffffffffffffffffffffffffffffff021916908373ffffffffffffffffffffffffffffffffffffffff16021790555060408201518160020160006101000a81548173ffffffffffffffffffffffffffffffffffffffff021916908373ffffffffffffffffffffffffffffffffffffffff160217905550606082015181600301559050508173ffffffffffffffffffffffffffffffffffffffff16857f30d4639aaeab3d855645143b89e73f02a888a38520e63402edcaf9b27cabc93b838988604051808481526020018373ffffffffffffffffffffffffffffffffffffffff1673ffffffffffffffffffffffffffffffffffffffff168152602001828152602001935050505060405180910390a3505050505050565b60005481565b6001602052816000526040600020602052806000526040600020600091509150508060000154908060010160009054906101000a900473ffffffffffffffffffffffffffffffffffffffff16908060020160009054906101000a900473ffffffffffffffffffffffffffffffffffffffff16908060030154905084565b600080823b905060008111915050919050565b600080828401905083811015610ea757fe5b8091505092915050565b604051806080016040528060008019168152602001600073ffffffffffffffffffffffffffffffffffffffff168152602001600073ffffffffffffffffffffffffffffffffffffffff16815260200160008152509056fe546865204e465420416464726573732073686f756c64206265206120636f6e74726163745468652073656c6c6572206973206e6f206c6f6e67657220746865206f776e6572a265627a7a72315820c4c74d61a8ba7fbd0a5a1163c7495c7d1a80d9fdd4470ccb0a118658a30db8ad64736f6c63430005110032",
  "source": "pragma solidity ^0.5.16;\r\n\r\nimport \"./NFT.sol\";\r\n\r\nimport \"./SafeMath.sol\";\r\nimport \"./AddressUtils.sol\";\r\n\r\nimport \"./MarketPlaceStorage.sol\";\r\n\r\ncontract Marketplace is MarketPlaceStorage{\r\n    using SafeMath for uint256;\r\n    using AddressUtils for address;\r\n    address payable MarketPlaceOwner;\r\n    \r\n    constructor () public {\r\n        MarketPlaceOwner = msg.sender;\r\n    }\r\n    \r\n    /**\r\n    * @dev Guarantees msg.sender is owner of the Marketplace\r\n    */\r\n    modifier isOwner() {\r\n        require(MarketPlaceOwner == msg.sender);\r\n        _;\r\n    }\r\n    \r\n    /**\r\n    * @dev Creates a new order\r\n    * @param nftAddress - Non fungible registry address\r\n    * @param assetId - ID of the published NFT\r\n    * @param priceInWei - Price in Wei for the supported coin\r\n    */\r\n    // msg.value - Publication Fee In Wei\r\n    \r\n    function convertToPremium(\r\n        address nftAddress,\r\n        uint256 assetId,\r\n        uint256 priceInWei\r\n    )\r\n    public payable\r\n    {\r\n        require(nftAddress.isContract(), \"The NFT Address should be a contract\");\r\n        \r\n        address sender = msg.sender;\r\n        address assetOwner = NFT(nftAddress).ownerOf(assetId);\r\n\r\n        require(sender == assetOwner, \"Only the owner can create orders\");\r\n        require(priceInWei > 0, \"Price should be bigger than 0\");\r\n        \r\n        nftCounter = nftCounter.add(1);\r\n        premiumNFT[nftCounter] = (assetId);\r\n\r\n        bytes32 orderId = keccak256(\r\n            abi.encodePacked(\r\n                block.timestamp,\r\n                assetOwner,\r\n                assetId,\r\n                nftAddress,\r\n                priceInWei\r\n            )\r\n        );\r\n\r\n        orderByAssetId[nftAddress][assetId] = Order({\r\n            id: orderId,\r\n            seller: address(uint160(assetOwner)),\r\n            nftAddress: nftAddress,\r\n            price: priceInWei\r\n        });\r\n        \r\n        emit OrderCreated(\r\n            orderId,\r\n            assetId,\r\n            assetOwner,\r\n            nftAddress,\r\n            priceInWei\r\n        );\r\n    }\r\n  \r\n    \r\n    /**\r\n    * @dev Executes the sale for a published NFT\r\n    * @param nftAddress - Address of the NFT registry\r\n    * @param assetId - ID of the published NFT\r\n    */\r\n    //msg.value - price\r\n    function addPremiumNFT(\r\n        address nftAddress,\r\n        uint256 assetId\r\n    )\r\n       public payable\r\n      {\r\n    \r\n        address payable sender = msg.sender;\r\n    \r\n        Order memory order = orderByAssetId[nftAddress][assetId];\r\n    \r\n        require(order.id != 0, \"Asset not published\");\r\n    \r\n        address payable seller = order.seller;\r\n    \r\n        require(seller != address(0), \"Invalid address\");\r\n        require(seller != sender, \"Unauthorized user\");\r\n        require(order.price == msg.value, \"The price is not correct\");\r\n        require(seller == NFT(nftAddress).ownerOf(assetId), \"The seller is no longer the owner\");\r\n        \r\n        bytes32 orderId = order.id;\r\n        \r\n        // Transfer sale amount to seller\r\n        seller.transfer(msg.value);\r\n        \r\n        // Approve User\r\n        approvalList[assetId].push(msg.sender);\r\n    \r\n        emit OrderSuccessful(\r\n          orderId,\r\n          assetId,\r\n          seller,\r\n          nftAddress,\r\n          msg.value,\r\n          sender\r\n        );\r\n    \r\n      }  \r\n}\r\n",
  "sourcePath": "C:/Users/Rishikesh Kale/EthOddesy/FootPrints/src/contracts/Marketplace.sol",
  "compiler": {
    "name": "solc",
    "version": "0.5.17+commit.d19bba13.Emscripten.clang"
  },
  "schemaVersion": "3.4.1",
  "updatedAt": "2021-07-27T19:08:16.145Z",
  "networkType": "ethereum",
  "devdoc": {
    "methods": {
      "addPremiumNFT(address,uint256)": {
        "details": "Executes the sale for a published NFT",
        "params": {
          "assetId": "- ID of the published NFT",
          "nftAddress": "- Address of the NFT registry"
        }
      },
      "convertToPremium(address,uint256,uint256)": {
        "details": "Creates a new order",
        "params": {
          "assetId": "- ID of the published NFT",
          "nftAddress": "- Non fungible registry address",
          "priceInWei": "- Price in Wei for the supported coin"
        }
      }
    }
  },
  "userdoc": {
    "methods": {}
  }
}