{
  "contractName": "Marketplace",
  "abi": [
    {
      "inputs": [],
      "payable": false,
      "stateMutability": "nonpayable",
      "type": "constructor"
    },
    {
      "anonymous": false,
      "inputs": [
        {
          "indexed": false,
          "internalType": "bytes32",
          "name": "id",
          "type": "bytes32"
        },
        {
          "indexed": true,
          "internalType": "uint256",
          "name": "assetId",
          "type": "uint256"
        },
        {
          "indexed": true,
          "internalType": "address",
          "name": "seller",
          "type": "address"
        },
        {
          "indexed": false,
          "internalType": "address",
          "name": "nftAddress",
          "type": "address"
        }
      ],
      "name": "OrderCancelled",
      "type": "event"
    },
    {
      "anonymous": false,
      "inputs": [
        {
          "indexed": false,
          "internalType": "bytes32",
          "name": "id",
          "type": "bytes32"
        },
        {
          "indexed": true,
          "internalType": "uint256",
          "name": "assetId",
          "type": "uint256"
        },
        {
          "indexed": true,
          "internalType": "address",
          "name": "seller",
          "type": "address"
        },
        {
          "indexed": false,
          "internalType": "address",
          "name": "nftAddress",
          "type": "address"
        },
        {
          "indexed": false,
          "internalType": "uint256",
          "name": "priceInWei",
          "type": "uint256"
        }
      ],
      "name": "OrderCreated",
      "type": "event"
    },
    {
      "anonymous": false,
      "inputs": [
        {
          "indexed": false,
          "internalType": "bytes32",
          "name": "id",
          "type": "bytes32"
        },
        {
          "indexed": true,
          "internalType": "uint256",
          "name": "assetId",
          "type": "uint256"
        },
        {
          "indexed": true,
          "internalType": "address",
          "name": "seller",
          "type": "address"
        },
        {
          "indexed": false,
          "internalType": "address",
          "name": "nftAddress",
          "type": "address"
        },
        {
          "indexed": false,
          "internalType": "uint256",
          "name": "totalPrice",
          "type": "uint256"
        },
        {
          "indexed": true,
          "internalType": "address",
          "name": "buyer",
          "type": "address"
        }
      ],
      "name": "OrderSuccessful",
      "type": "event"
    },
    {
      "constant": true,
      "inputs": [
        {
          "internalType": "uint256",
          "name": "",
          "type": "uint256"
        },
        {
          "internalType": "uint256",
          "name": "",
          "type": "uint256"
        }
      ],
      "name": "approvalList",
      "outputs": [
        {
          "internalType": "address",
          "name": "",
          "type": "address"
        }
      ],
      "payable": false,
      "stateMutability": "view",
      "type": "function"
    },
    {
      "constant": true,
      "inputs": [],
      "name": "nftCounter",
      "outputs": [
        {
          "internalType": "uint256",
          "name": "",
          "type": "uint256"
        }
      ],
      "payable": false,
      "stateMutability": "view",
      "type": "function"
    },
    {
      "constant": true,
      "inputs": [
        {
          "internalType": "address",
          "name": "",
          "type": "address"
        },
        {
          "internalType": "uint256",
          "name": "",
          "type": "uint256"
        }
      ],
      "name": "orderByAssetId",
      "outputs": [
        {
          "internalType": "bytes32",
          "name": "id",
          "type": "bytes32"
        },
        {
          "internalType": "address payable",
          "name": "seller",
          "type": "address"
        },
        {
          "internalType": "address",
          "name": "nftAddress",
          "type": "address"
        },
        {
          "internalType": "uint256",
          "name": "price",
          "type": "uint256"
        }
      ],
      "payable": false,
      "stateMutability": "view",
      "type": "function"
    },
    {
      "constant": true,
      "inputs": [
        {
          "internalType": "uint256",
          "name": "",
          "type": "uint256"
        }
      ],
      "name": "premiumNFT",
      "outputs": [
        {
          "internalType": "uint256",
          "name": "",
          "type": "uint256"
        }
      ],
      "payable": false,
      "stateMutability": "view",
      "type": "function"
    },
    {
      "constant": false,
      "inputs": [
        {
          "internalType": "uint256",
          "name": "number",
          "type": "uint256"
        }
      ],
      "name": "simple",
      "outputs": [],
      "payable": false,
      "stateMutability": "nonpayable",
      "type": "function"
    },
    {
      "constant": false,
      "inputs": [
        {
          "internalType": "address",
          "name": "nftAddress",
          "type": "address"
        },
        {
          "internalType": "uint256",
          "name": "assetId",
          "type": "uint256"
        },
        {
          "internalType": "uint256",
          "name": "priceInWei",
          "type": "uint256"
        }
      ],
      "name": "convertToPremium",
      "outputs": [],
      "payable": false,
      "stateMutability": "nonpayable",
      "type": "function"
    },
    {
      "constant": false,
      "inputs": [
        {
          "internalType": "address",
          "name": "nftAddress",
          "type": "address"
        },
        {
          "internalType": "uint256",
          "name": "assetId",
          "type": "uint256"
        }
      ],
      "name": "addPremiumNFT",
      "outputs": [],
      "payable": true,
      "stateMutability": "payable",
      "type": "function"
    }
  ],
  "bytecode": "0x608060405234801561001057600080fd5b5033600460006101000a81548173ffffffffffffffffffffffffffffffffffffffff021916908373ffffffffffffffffffffffffffffffffffffffff160217905550610ad2806100616000396000f3fe6080604052600436106100705760003560e01c8063d32275721161004e578063d322757214610197578063dcf8088f146101d2578063e574609e14610237578063e61f38511461026257610070565b806319a421431461007557806330d9e574146100c4578063ae7aa44814610149575b600080fd5b34801561008157600080fd5b506100ae6004803603602081101561009857600080fd5b810190808035906020019092919050505061033e565b6040518082815260200191505060405180910390f35b3480156100d057600080fd5b50610107600480360360408110156100e757600080fd5b810190808035906020019092919080359060200190929190505050610356565b604051808273ffffffffffffffffffffffffffffffffffffffff1673ffffffffffffffffffffffffffffffffffffffff16815260200191505060405180910390f35b6101956004803603604081101561015f57600080fd5b81019080803573ffffffffffffffffffffffffffffffffffffffff169060200190929190803590602001909291905050506103a1565b005b3480156101a357600080fd5b506101d0600480360360208110156101ba57600080fd5b810190808035906020019092919050505061098f565b005b3480156101de57600080fd5b50610235600480360360608110156101f557600080fd5b81019080803573ffffffffffffffffffffffffffffffffffffffff169060200190929190803590602001909291908035906020019092919050505061099d565b005b34801561024357600080fd5b5061024c6109a2565b6040518082815260200191505060405180910390f35b34801561026e57600080fd5b506102bb6004803603604081101561028557600080fd5b81019080803573ffffffffffffffffffffffffffffffffffffffff169060200190929190803590602001909291905050506109a8565b604051808581526020018473ffffffffffffffffffffffffffffffffffffffff1673ffffffffffffffffffffffffffffffffffffffff1681526020018373ffffffffffffffffffffffffffffffffffffffff1673ffffffffffffffffffffffffffffffffffffffff16815260200182815260200194505050505060405180910390f35b60026020528060005260406000206000915090505481565b6003602052816000526040600020818154811061036f57fe5b906000526020600020016000915091509054906101000a900473ffffffffffffffffffffffffffffffffffffffff1681565b60003390506103ae610a25565b600160008573ffffffffffffffffffffffffffffffffffffffff1673ffffffffffffffffffffffffffffffffffffffff1681526020019081526020016000206000848152602001908152602001600020604051806080016040529081600082015481526020016001820160009054906101000a900473ffffffffffffffffffffffffffffffffffffffff1673ffffffffffffffffffffffffffffffffffffffff1673ffffffffffffffffffffffffffffffffffffffff1681526020016002820160009054906101000a900473ffffffffffffffffffffffffffffffffffffffff1673ffffffffffffffffffffffffffffffffffffffff1673ffffffffffffffffffffffffffffffffffffffff16815260200160038201548152505090506000801b81600001511415610548576040517f08c379a00000000000000000000000000000000000000000000000000000000081526004018080602001828103825260138152602001807f4173736574206e6f74207075626c69736865640000000000000000000000000081525060200191505060405180910390fd5b600081602001519050600073ffffffffffffffffffffffffffffffffffffffff168173ffffffffffffffffffffffffffffffffffffffff1614156105f4576040517f08c379a000000000000000000000000000000000000000000000000000000000815260040180806020018281038252600f8152602001807f496e76616c69642061646472657373000000000000000000000000000000000081525060200191505060405180910390fd5b8273ffffffffffffffffffffffffffffffffffffffff168173ffffffffffffffffffffffffffffffffffffffff161415610696576040517f08c379a00000000000000000000000000000000000000000000000000000000081526004018080602001828103825260118152602001807f556e617574686f72697a6564207573657200000000000000000000000000000081525060200191505060405180910390fd5b3482606001511461070f576040517f08c379a00000000000000000000000000000000000000000000000000000000081526004018080602001828103825260188152602001807f546865207072696365206973206e6f7420636f7272656374000000000000000081525060200191505060405180910390fd5b8473ffffffffffffffffffffffffffffffffffffffff16636352211e856040518263ffffffff1660e01b81526004018082815260200191505060206040518083038186803b15801561076057600080fd5b505afa158015610774573d6000803e3d6000fd5b505050506040513d602081101561078a57600080fd5b810190808051906020019092919050505073ffffffffffffffffffffffffffffffffffffffff168173ffffffffffffffffffffffffffffffffffffffff161461081e576040517f08c379a0000000000000000000000000000000000000000000000000000000008152600401808060200182810382526021815260200180610a7d6021913960400191505060405180910390fd5b6000826000015190508173ffffffffffffffffffffffffffffffffffffffff166108fc349081150290604051600060405180830381858888f1935050505015801561086d573d6000803e3d6000fd5b50600360008681526020019081526020016000203390806001815401808255809150509060018203906000526020600020016000909192909190916101000a81548173ffffffffffffffffffffffffffffffffffffffff021916908373ffffffffffffffffffffffffffffffffffffffff160217905550508373ffffffffffffffffffffffffffffffffffffffff168273ffffffffffffffffffffffffffffffffffffffff16867f695ec315e8a642a74d450a4505eeea53df699b47a7378c7d752e97d5b16eb9bb848a34604051808481526020018373ffffffffffffffffffffffffffffffffffffffff1673ffffffffffffffffffffffffffffffffffffffff168152602001828152602001935050505060405180910390a4505050505050565b806000540160008190555050565b505050565b60005481565b6001602052816000526040600020602052806000526040600020600091509150508060000154908060010160009054906101000a900473ffffffffffffffffffffffffffffffffffffffff16908060020160009054906101000a900473ffffffffffffffffffffffffffffffffffffffff16908060030154905084565b604051806080016040528060008019168152602001600073ffffffffffffffffffffffffffffffffffffffff168152602001600073ffffffffffffffffffffffffffffffffffffffff16815260200160008152509056fe5468652073656c6c6572206973206e6f206c6f6e67657220746865206f776e6572a265627a7a723158207929f0ec9acf4fd661cca17557250d8bbf2f3d0b55d0073e4de16cad200418e764736f6c63430005110032",
  "source": "pragma solidity ^0.5.16;\r\n\r\nimport \"./NFT.sol\";\r\n\r\nimport \"./SafeMath.sol\";\r\nimport \"./AddressUtils.sol\";\r\n\r\nimport \"./MarketPlaceStorage.sol\";\r\n\r\ncontract Marketplace is MarketPlaceStorage{\r\n    using SafeMath for uint256;\r\n    using AddressUtils for address;\r\n    address payable MarketPlaceOwner;\r\n    \r\n    constructor () public {\r\n        MarketPlaceOwner = msg.sender;\r\n    }\r\n    \r\n    /**\r\n    * @dev Guarantees msg.sender is owner of the Marketplace\r\n    */\r\n    modifier isOwner() {\r\n        require(MarketPlaceOwner == msg.sender);\r\n        _;\r\n    }\r\n\r\n    function simple(uint256 number) public{\r\n        nftCounter=nftCounter+number;\r\n    }\r\n    \r\n    /**\r\n    * @dev Creates a new order\r\n    * @param nftAddress - Non fungible registry address\r\n    * @param assetId - ID of the published NFT\r\n    * @param priceInWei - Price in Wei for the supported coin\r\n    */\r\n    // msg.value - Publication Fee In Wei\r\n\r\n    function convertToPremium(\r\n        address nftAddress,\r\n        uint256 assetId,\r\n        uint256 priceInWei\r\n    )\r\n    public\r\n    {\r\n        // require(nftAddress.isContract(), \"The NFT Address should be a contract\");\r\n        \r\n        // address sender = msg.sender;\r\n        // address assetOwner = msg.sender;\r\n\r\n        // require(priceInWei > 0, \"Price should be bigger than 0\");\r\n        \r\n        // nftCounter = nftCounter.add(1);\r\n        // premiumNFT[nftCounter] = (assetId);\r\n\r\n        // bytes32 orderId = keccak256(\r\n        //     abi.encodePacked(\r\n        //         block.timestamp,\r\n        //         assetOwner,\r\n        //         assetId,\r\n        //         nftAddress,\r\n        //         priceInWei\r\n        //     )\r\n        // );\r\n\r\n        // orderByAssetId[nftAddress][assetId] = Order({\r\n        //     id: orderId,\r\n        //     seller: address(uint160(assetOwner)),\r\n        //     nftAddress: nftAddress,\r\n        //     price: priceInWei\r\n        // });\r\n        \r\n        // emit OrderCreated(\r\n        //     orderId,\r\n        //     assetId,\r\n        //     assetOwner,\r\n        //     nftAddress,\r\n        //     priceInWei\r\n        // );\r\n    }\r\n  \r\n    \r\n    /**\r\n    * @dev Executes the sale for a published NFT\r\n    * @param nftAddress - Address of the NFT registry\r\n    * @param assetId - ID of the published NFT\r\n    */\r\n    //msg.value - price\r\n    function addPremiumNFT(\r\n        address nftAddress,\r\n        uint256 assetId\r\n    )\r\n       public payable\r\n      {\r\n    \r\n        address payable sender = msg.sender;\r\n    \r\n        Order memory order = orderByAssetId[nftAddress][assetId];\r\n    \r\n        require(order.id != 0, \"Asset not published\");\r\n    \r\n        address payable seller = order.seller;\r\n    \r\n        require(seller != address(0), \"Invalid address\");\r\n        require(seller != sender, \"Unauthorized user\");\r\n        require(order.price == msg.value, \"The price is not correct\");\r\n        require(seller == NFT(nftAddress).ownerOf(assetId), \"The seller is no longer the owner\");\r\n        \r\n        bytes32 orderId = order.id;\r\n        \r\n        // Transfer sale amount to seller\r\n        seller.transfer(msg.value);\r\n        \r\n        // Approve User\r\n        approvalList[assetId].push(msg.sender);\r\n    \r\n        emit OrderSuccessful(\r\n          orderId,\r\n          assetId,\r\n          seller,\r\n          nftAddress,\r\n          msg.value,\r\n          sender\r\n        );\r\n    \r\n      }  \r\n}\r\n",
  "sourcePath": "C:/Users/yashr/Documents/Important/Projects/FootPrints/src/contracts/MarketPlace.sol",
  "compiler": {
    "name": "solc",
    "version": "0.5.17+commit.d19bba13.Emscripten.clang"
  },
  "schemaVersion": "3.4.1",
  "updatedAt": "2021-08-01T07:12:30.656Z",
  "networkType": "ethereum",
  "devdoc": {
    "methods": {
      "addPremiumNFT(address,uint256)": {
        "details": "Executes the sale for a published NFT",
        "params": {
          "assetId": "- ID of the published NFT",
          "nftAddress": "- Address of the NFT registry"
        }
      },
      "convertToPremium(address,uint256,uint256)": {
        "details": "Creates a new order",
        "params": {
          "assetId": "- ID of the published NFT",
          "nftAddress": "- Non fungible registry address",
          "priceInWei": "- Price in Wei for the supported coin"
        }
      }
    }
  },
  "userdoc": {
    "methods": {}
  }
}