{
  "contractName": "Marketplace",
  "abi": [
    {
      "inputs": [],
      "payable": false,
      "stateMutability": "nonpayable",
      "type": "constructor"
    },
    {
      "anonymous": false,
      "inputs": [
        {
          "indexed": false,
          "internalType": "bytes32",
          "name": "id",
          "type": "bytes32"
        },
        {
          "indexed": true,
          "internalType": "uint256",
          "name": "assetId",
          "type": "uint256"
        },
        {
          "indexed": true,
          "internalType": "address",
          "name": "seller",
          "type": "address"
        },
        {
          "indexed": false,
          "internalType": "address",
          "name": "nftAddress",
          "type": "address"
        }
      ],
      "name": "OrderCancelled",
      "type": "event"
    },
    {
      "anonymous": false,
      "inputs": [
        {
          "indexed": false,
          "internalType": "bytes32",
          "name": "id",
          "type": "bytes32"
        },
        {
          "indexed": true,
          "internalType": "uint256",
          "name": "assetId",
          "type": "uint256"
        },
        {
          "indexed": true,
          "internalType": "address",
          "name": "seller",
          "type": "address"
        },
        {
          "indexed": false,
          "internalType": "address",
          "name": "nftAddress",
          "type": "address"
        },
        {
          "indexed": false,
          "internalType": "uint256",
          "name": "priceInWei",
          "type": "uint256"
        }
      ],
      "name": "OrderCreated",
      "type": "event"
    },
    {
      "anonymous": false,
      "inputs": [
        {
          "indexed": false,
          "internalType": "bytes32",
          "name": "id",
          "type": "bytes32"
        },
        {
          "indexed": true,
          "internalType": "uint256",
          "name": "assetId",
          "type": "uint256"
        },
        {
          "indexed": true,
          "internalType": "address",
          "name": "seller",
          "type": "address"
        },
        {
          "indexed": false,
          "internalType": "address",
          "name": "nftAddress",
          "type": "address"
        },
        {
          "indexed": false,
          "internalType": "uint256",
          "name": "totalPrice",
          "type": "uint256"
        },
        {
          "indexed": true,
          "internalType": "address",
          "name": "buyer",
          "type": "address"
        }
      ],
      "name": "OrderSuccessful",
      "type": "event"
    },
    {
      "constant": true,
      "inputs": [
        {
          "internalType": "uint256",
          "name": "",
          "type": "uint256"
        },
        {
          "internalType": "uint256",
          "name": "",
          "type": "uint256"
        }
      ],
      "name": "approvalList",
      "outputs": [
        {
          "internalType": "address",
          "name": "",
          "type": "address"
        }
      ],
      "payable": false,
      "stateMutability": "view",
      "type": "function"
    },
    {
      "constant": true,
      "inputs": [],
      "name": "nftCounter",
      "outputs": [
        {
          "internalType": "uint256",
          "name": "",
          "type": "uint256"
        }
      ],
      "payable": false,
      "stateMutability": "view",
      "type": "function"
    },
    {
      "constant": true,
      "inputs": [
        {
          "internalType": "address",
          "name": "",
          "type": "address"
        },
        {
          "internalType": "uint256",
          "name": "",
          "type": "uint256"
        }
      ],
      "name": "orderByAssetId",
      "outputs": [
        {
          "internalType": "bytes32",
          "name": "id",
          "type": "bytes32"
        },
        {
          "internalType": "address payable",
          "name": "seller",
          "type": "address"
        },
        {
          "internalType": "address",
          "name": "nftAddress",
          "type": "address"
        },
        {
          "internalType": "uint256",
          "name": "price",
          "type": "uint256"
        }
      ],
      "payable": false,
      "stateMutability": "view",
      "type": "function"
    },
    {
      "constant": true,
      "inputs": [
        {
          "internalType": "uint256",
          "name": "",
          "type": "uint256"
        }
      ],
      "name": "premiumNFT",
      "outputs": [
        {
          "internalType": "uint256",
          "name": "",
          "type": "uint256"
        }
      ],
      "payable": false,
      "stateMutability": "view",
      "type": "function"
    },
    {
      "constant": false,
      "inputs": [
        {
          "internalType": "address",
          "name": "nftAddress",
          "type": "address"
        },
        {
          "internalType": "uint256",
          "name": "assetId",
          "type": "uint256"
        },
        {
          "internalType": "uint256",
          "name": "priceInWei",
          "type": "uint256"
        }
      ],
      "name": "convertToPremium",
      "outputs": [],
      "payable": false,
      "stateMutability": "nonpayable",
      "type": "function"
    },
    {
      "constant": false,
      "inputs": [
        {
          "internalType": "address",
          "name": "nftAddress",
          "type": "address"
        },
        {
          "internalType": "uint256",
          "name": "assetId",
          "type": "uint256"
        },
        {
          "internalType": "string",
          "name": "_uri",
          "type": "string"
        }
      ],
      "name": "addPremiumNFT",
      "outputs": [],
      "payable": true,
      "stateMutability": "payable",
      "type": "function"
    }
  ],
  "bytecode": "0x608060405234801561001057600080fd5b5033600460006101000a81548173ffffffffffffffffffffffffffffffffffffffff021916908373ffffffffffffffffffffffffffffffffffffffff160217905550610ede806100616000396000f3fe6080604052600436106100555760003560e01c806319a421431461005a57806330d9e574146100a95780638a8a6d421461012e578063dcf8088f14610213578063e574609e14610278578063e61f3851146102a3575b600080fd5b34801561006657600080fd5b506100936004803603602081101561007d57600080fd5b810190808035906020019092919050505061037f565b6040518082815260200191505060405180910390f35b3480156100b557600080fd5b506100ec600480360360408110156100cc57600080fd5b810190808035906020019092919080359060200190929190505050610397565b604051808273ffffffffffffffffffffffffffffffffffffffff1673ffffffffffffffffffffffffffffffffffffffff16815260200191505060405180910390f35b6102116004803603606081101561014457600080fd5b81019080803573ffffffffffffffffffffffffffffffffffffffff169060200190929190803590602001909291908035906020019064010000000081111561018b57600080fd5b82018360208201111561019d57600080fd5b803590602001918460018302840111640100000000831117156101bf57600080fd5b91908080601f016020809104026020016040519081016040528093929190818152602001838380828437600081840152601f19601f8201169050808301925050505050505091929192905050506103e2565b005b34801561021f57600080fd5b506102766004803603606081101561023657600080fd5b81019080803573ffffffffffffffffffffffffffffffffffffffff1690602001909291908035906020019092919080359060200190929190505050610ad5565b005b34801561028457600080fd5b5061028d610d92565b6040518082815260200191505060405180910390f35b3480156102af57600080fd5b506102fc600480360360408110156102c657600080fd5b81019080803573ffffffffffffffffffffffffffffffffffffffff16906020019092919080359060200190929190505050610d98565b604051808581526020018473ffffffffffffffffffffffffffffffffffffffff1673ffffffffffffffffffffffffffffffffffffffff1681526020018373ffffffffffffffffffffffffffffffffffffffff1673ffffffffffffffffffffffffffffffffffffffff16815260200182815260200194505050505060405180910390f35b60026020528060005260406000206000915090505481565b600360205281600052604060002081815481106103b057fe5b906000526020600020016000915091509054906101000a900473ffffffffffffffffffffffffffffffffffffffff1681565b60003390506103ef610e31565b600160008673ffffffffffffffffffffffffffffffffffffffff1673ffffffffffffffffffffffffffffffffffffffff1681526020019081526020016000206000858152602001908152602001600020604051806080016040529081600082015481526020016001820160009054906101000a900473ffffffffffffffffffffffffffffffffffffffff1673ffffffffffffffffffffffffffffffffffffffff1673ffffffffffffffffffffffffffffffffffffffff1681526020016002820160009054906101000a900473ffffffffffffffffffffffffffffffffffffffff1673ffffffffffffffffffffffffffffffffffffffff1673ffffffffffffffffffffffffffffffffffffffff16815260200160038201548152505090506000801b81600001511415610589576040517f08c379a00000000000000000000000000000000000000000000000000000000081526004018080602001828103825260138152602001807f4173736574206e6f74207075626c69736865640000000000000000000000000081525060200191505060405180910390fd5b600081602001519050600073ffffffffffffffffffffffffffffffffffffffff168173ffffffffffffffffffffffffffffffffffffffff161415610635576040517f08c379a000000000000000000000000000000000000000000000000000000000815260040180806020018281038252600f8152602001807f496e76616c69642061646472657373000000000000000000000000000000000081525060200191505060405180910390fd5b8273ffffffffffffffffffffffffffffffffffffffff168173ffffffffffffffffffffffffffffffffffffffff1614156106d7576040517f08c379a00000000000000000000000000000000000000000000000000000000081526004018080602001828103825260118152602001807f556e617574686f72697a6564207573657200000000000000000000000000000081525060200191505060405180910390fd5b34826060015114610750576040517f08c379a00000000000000000000000000000000000000000000000000000000081526004018080602001828103825260188152602001807f546865207072696365206973206e6f7420636f7272656374000000000000000081525060200191505060405180910390fd5b8573ffffffffffffffffffffffffffffffffffffffff16636352211e866040518263ffffffff1660e01b81526004018082815260200191505060206040518083038186803b1580156107a157600080fd5b505afa1580156107b5573d6000803e3d6000fd5b505050506040513d60208110156107cb57600080fd5b810190808051906020019092919050505073ffffffffffffffffffffffffffffffffffffffff168173ffffffffffffffffffffffffffffffffffffffff161461085f576040517f08c379a0000000000000000000000000000000000000000000000000000000008152600401808060200182810382526021815260200180610e896021913960400191505060405180910390fd5b6000826000015190508173ffffffffffffffffffffffffffffffffffffffff166108fc349081150290604051600060405180830381858888f193505050501580156108ae573d6000803e3d6000fd5b508673ffffffffffffffffffffffffffffffffffffffff16635122acb386336040518363ffffffff1660e01b815260040180806020018373ffffffffffffffffffffffffffffffffffffffff1673ffffffffffffffffffffffffffffffffffffffff168152602001828103825284818151815260200191508051906020019080838360005b8381101561094e578082015181840152602081019050610933565b50505050905090810190601f16801561097b5780820380516001836020036101000a031916815260200191505b509350505050600060405180830381600087803b15801561099b57600080fd5b505af11580156109af573d6000803e3d6000fd5b50505050600360008781526020019081526020016000203390806001815401808255809150509060018203906000526020600020016000909192909190916101000a81548173ffffffffffffffffffffffffffffffffffffffff021916908373ffffffffffffffffffffffffffffffffffffffff160217905550508373ffffffffffffffffffffffffffffffffffffffff168273ffffffffffffffffffffffffffffffffffffffff16877f695ec315e8a642a74d450a4505eeea53df699b47a7378c7d752e97d5b16eb9bb848b34604051808481526020018373ffffffffffffffffffffffffffffffffffffffff1673ffffffffffffffffffffffffffffffffffffffff168152602001828152602001935050505060405180910390a450505050505050565b60003390506000339050610af56001600054610e1590919063ffffffff16565b6000819055508360026000805481526020019081526020016000208190555060004282868887604051602001808681526020018573ffffffffffffffffffffffffffffffffffffffff1673ffffffffffffffffffffffffffffffffffffffff1660601b81526014018481526020018373ffffffffffffffffffffffffffffffffffffffff1673ffffffffffffffffffffffffffffffffffffffff1660601b81526014018281526020019550505050505060405160208183030381529060405280519060200120905060405180608001604052808281526020018373ffffffffffffffffffffffffffffffffffffffff1681526020018773ffffffffffffffffffffffffffffffffffffffff16815260200185815250600160008873ffffffffffffffffffffffffffffffffffffffff1673ffffffffffffffffffffffffffffffffffffffff16815260200190815260200160002060008781526020019081526020016000206000820151816000015560208201518160010160006101000a81548173ffffffffffffffffffffffffffffffffffffffff021916908373ffffffffffffffffffffffffffffffffffffffff16021790555060408201518160020160006101000a81548173ffffffffffffffffffffffffffffffffffffffff021916908373ffffffffffffffffffffffffffffffffffffffff160217905550606082015181600301559050508173ffffffffffffffffffffffffffffffffffffffff16857f30d4639aaeab3d855645143b89e73f02a888a38520e63402edcaf9b27cabc93b838988604051808481526020018373ffffffffffffffffffffffffffffffffffffffff1673ffffffffffffffffffffffffffffffffffffffff168152602001828152602001935050505060405180910390a3505050505050565b60005481565b6001602052816000526040600020602052806000526040600020600091509150508060000154908060010160009054906101000a900473ffffffffffffffffffffffffffffffffffffffff16908060020160009054906101000a900473ffffffffffffffffffffffffffffffffffffffff16908060030154905084565b600080828401905083811015610e2757fe5b8091505092915050565b604051806080016040528060008019168152602001600073ffffffffffffffffffffffffffffffffffffffff168152602001600073ffffffffffffffffffffffffffffffffffffffff16815260200160008152509056fe5468652073656c6c6572206973206e6f206c6f6e67657220746865206f776e6572a265627a7a723158202d030e14360afb7a04550bdaf6ca1d64db7add304c8e7b23c2ff624b29d2f7d564736f6c63430005110032",
  "source": "pragma solidity ^0.5.16;\r\n\r\nimport \"./NFT.sol\";\r\nimport \"./ERC721Token.sol\";\r\nimport \"./SafeMath.sol\";\r\nimport \"./AddressUtils.sol\";\r\n\r\nimport \"./MarketPlaceStorage.sol\";\r\n\r\ncontract Marketplace is MarketPlaceStorage{\r\n    using SafeMath for uint256;\r\n    using AddressUtils for address;\r\n    address payable MarketPlaceOwner;\r\n    \r\n    \r\n    constructor() public {\r\n             MarketPlaceOwner = msg.sender;\r\n    }\r\n\r\n    /**\r\n    * @dev Guarantees msg.sender is owner of the Marketplace\r\n    */\r\n    modifier isOwner() {\r\n        require(MarketPlaceOwner == msg.sender);\r\n        _;\r\n    }\r\n\r\n    /**\r\n    * @dev Creates a new order\r\n    * @param nftAddress - Non fungible registry address\r\n    * @param assetId - ID of the published NFT\r\n    * @param priceInWei - Price in Wei for the supported coin\r\n    */\r\n    // msg.value - Publication Fee In Wei\r\n\r\n    function convertToPremium(\r\n        address nftAddress,\r\n        uint256 assetId,\r\n        uint256 priceInWei\r\n    )\r\n    public\r\n    {\r\n        // require(nftAddress.isContract(), \"The NFT Address should be a contract\");\r\n        \r\n        address sender = msg.sender;\r\n        address assetOwner = msg.sender;\r\n\r\n        // require(priceInWei > 0, \"Price should be bigger than 0\");\r\n        \r\n        nftCounter = nftCounter.add(1);\r\n        premiumNFT[nftCounter] = assetId;\r\n\r\n        bytes32 orderId = keccak256(\r\n            abi.encodePacked(\r\n                block.timestamp,\r\n                assetOwner,\r\n                assetId,\r\n                nftAddress,\r\n                priceInWei\r\n            )\r\n        );\r\n\r\n        orderByAssetId[nftAddress][assetId] = Order({\r\n            id: orderId,\r\n            seller: address(uint160(assetOwner)),\r\n            nftAddress: nftAddress,\r\n            price: priceInWei\r\n        });\r\n        \r\n        emit OrderCreated(\r\n            orderId,\r\n            assetId,\r\n            assetOwner,\r\n            nftAddress,\r\n            priceInWei\r\n        );\r\n    }\r\n  \r\n    \r\n    /**\r\n    * @dev Executes the sale for a published NFT\r\n    * @param nftAddress - Address of the NFT registry\r\n    * @param assetId - ID of the published NFT\r\n    */\r\n    //msg.value - price\r\n    function addPremiumNFT(\r\n        address nftAddress,\r\n        uint256 assetId,\r\n        string memory _uri\r\n    )\r\n       public payable\r\n      {\r\n    \r\n        address payable sender = msg.sender;\r\n    \r\n        Order memory order = orderByAssetId[nftAddress][assetId];\r\n    \r\n        require(order.id != 0, \"Asset not published\");\r\n    \r\n        address payable seller = order.seller;\r\n    \r\n        require(seller != address(0), \"Invalid address\");\r\n        require(seller != sender, \"Unauthorized user\");\r\n        require(order.price == msg.value, \"The price is not correct\");\r\n        require(seller == NFT(nftAddress).ownerOf(assetId), \"The seller is no longer the owner\");\r\n        \r\n        bytes32 orderId = order.id;\r\n        \r\n        // Transfer sale amount to seller\r\n        seller.transfer(msg.value);\r\n\r\n        // Register NFT\r\n        NFT(nftAddress).registerNFT(_uri,msg.sender);\r\n        \r\n        // Approve User\r\n        approvalList[assetId].push(msg.sender);\r\n    \r\n        emit OrderSuccessful(\r\n          orderId,\r\n          assetId,\r\n          seller,\r\n          nftAddress,\r\n          msg.value,\r\n          sender\r\n        );\r\n    \r\n      }  \r\n}\r\n",
  "sourcePath": "C:/Users/yashr/Documents/Important/Projects/FootPrints/src/contracts/MarketPlace.sol",
  "compiler": {
    "name": "solc",
    "version": "0.5.17+commit.d19bba13.Emscripten.clang"
  },
  "schemaVersion": "3.4.1",
  "updatedAt": "2021-08-08T05:26:38.652Z",
  "networkType": "ethereum",
  "devdoc": {
    "methods": {
      "addPremiumNFT(address,uint256,string)": {
        "details": "Executes the sale for a published NFT",
        "params": {
          "assetId": "- ID of the published NFT",
          "nftAddress": "- Address of the NFT registry"
        }
      },
      "convertToPremium(address,uint256,uint256)": {
        "details": "Creates a new order",
        "params": {
          "assetId": "- ID of the published NFT",
          "nftAddress": "- Non fungible registry address",
          "priceInWei": "- Price in Wei for the supported coin"
        }
      }
    }
  },
  "userdoc": {
    "methods": {}
  }
}